:100000000EC015C014C013C012C011C010C00FC064
:100010000EC00DC00CC00BC00AC009C008C011241E
:100020001FBECFE5D2E0DEBFCDBF2AD07EC0E8CF75
:1000300021E030E002C0220F331F6A95E2F7822BE5
:10004000932B089521E030E002C0220F331F6A9500
:10005000E2F72095309582239323089521E030E044
:1000600002C0220F331F6A95E2F782279327089573
:1000700002C0959587956A95E2F781709927089552
:1000800087B590E08F7787BD87B5826087BD83EFA6
:1000900091E00197F1F700C0000007B400FEFDCF2A
:1000A00087B5846087BD87B3836087BB20E030E07D
:1000B000E6E0F0E0C90183709927892B09F4C19823
:1000C000C901BF011ED0892B09F4C19A8FE493ECBA
:1000D0000197F1F700C000002F5F3F4F2536310533
:1000E00049F710BE8AB5806880BF1DBC80B78061AB
:1000F00080BF80B790E08F7D80BF80B7816080BF78
:10010000FFCFAA1BBB1B51E107C0AA1FBB1FA6172D
:10011000B70710F0A61BB70B881F991F5A95A9F7B0
:0E01200080959095BC01CD010895F894FFCF15
:00000001FF
