:100000000EC028C027C026C025C024C023C022C0DF
:1000100021C020C01FC01EC01DC01CC01BC0112499
:100020001FBECFE5D2E0DEBFCDBF11E0A0E6B0E05D
:10003000E2EDF3E102C005900D92AA35B107D9F7C0
:1000400021E0AAE5B1E001C01D92A13AB207E1F7B3
:1000500086D9BDC9D5CF0F931F93CF93DC0183B74A
:10006000816083BF8AB582648ABD8CE08BBD89E0E4
:1000700083BF83E088B9EBE3F1E023E633E69191B7
:100080009227892F8295807F9827492F50E0142F3F
:100090000027440F551F440F551F440F551F40277D
:1000A0005127232F33272427352792959F702927FF
:1000B000C15029F720933B0230933C0290913401C8
:1000C00080913501892790913601892790913701D8
:1000D00089278093380190912F01809130018927E1
:1000E00090913101892790913201892780933301C2
:1000F0007093A00160939F01B0939E01A0939D0116
:10010000CF911F910F910895CF93DF93DC01FC01F4
:10011000862F23E633E691919227492F4295407F1F
:100120009427492F50E0D42FCC27440F551F440F5C
:10013000551F440F551F4C275D27232F3327242796
:10014000352792959F702927815029F76150A60F76
:10015000B11D11962C93119712963C93DF91CF917C
:100160000895FC019081818189279281892793815B
:1001700089278483089508B606FEFDCF88B780647A
:1001800088BF089580915C01873070F487E68BBD4D
:1001900080915C018F5F80935C0108B606FEFDCF05
:1001A00088B7806488BF089586E68BBD10925C0195
:1001B000F4CFCF93DC0188B7806488BF08B606FE11
:1001C000FDCF88B7806488BFBA9A87E68BBD9091CF
:1001D0005C01973008F0F2C08BBD80915C018F5FAD
:1001E00080935C0108B606FEFDCF88B7806488BFA7
:1001F000BA9881E040E090E030E076E657E6C1E072
:10020000FD01E30FF11D2081282380915C01222351
:1002100009F459C0873008F0A4C05BBD80915C012F
:100220008F5F80935C0108B606FEFDCF88B78064BF
:1002300088BFBA9A4C2780915C01873008F08DC046
:100240005BBD80915C018F5F80935C0108B606FE08
:10025000FDCF28B7206428BFBA989F5F983050F12F
:1002600080915C01442309F457C0873008F089C0AD
:100270005BBD80915C018F5F80935C0108B606FED8
:10028000FDCF88B7806488BFBA9880915C018730C1
:1002900008F073C05BBD80915C018F5F80935C014F
:1002A00008B606FEFDCF88B7806488BFBA9A3F5F64
:1002B00040E090E0361708F068C0E92FF0E0E15C1C
:1002C000FE4F80819DCF873018F55BBD80915C012A
:1002D0008F5F80935C0108B606FEFDCF28B72064CF
:1002E00028BFBA9880915C01873070F45BBD809123
:1002F0005C018F5F80935C0108B606FEFDCF28B7D6
:10030000206428BFBA9AA9CF7BBD10925C01F4CFBC
:100310007BBD10925C01DFCF873058F55BBD8091CB
:100320005C018F5F80935C0108B606FEFDCF88B745
:10033000806488BFBA9A80915C018730B0F45BBD5D
:1003400080915C018F5F80935C0108B606FEFDCF53
:1003500088B7806488BFBA98AACF7BBD10925C0131
:1003600075CF7BBD10925C015ECF7BBD10925C01AE
:10037000ECCF7BBD10925C01D7CF7BBD10925C01AE
:100380008FCF7BBD10925C0179CF80915C0187306B
:1003900080F487E68BBD80915C018F5F80935C0168
:1003A00008B606FEFDCF88B7806488BFBA98CF91A3
:1003B000089586E68BBD10925C01F2CF86E68BBD78
:1003C00010925C010FCF83ED8BBD10925D01449BB9
:1003D00005C01FBC88B7806488BF449A08B606FE73
:1003E000F6CF2FEF3FE008B606FE07C01FBC88B768
:1003F000806488BF21503109C9F1449BF4CF1FBCF0
:1004000088B7806488BF449A90E080E010C0E82FED
:10041000F0E0E35AFE4F2081A92FB0E0A95BBE4F68
:100420003C91232B20839E5F08B606FC16C0449B9C
:10043000FBCF2FB52230C0F32FB51FBC28B72064E7
:1004400028BF449A923118F38F5F9251E82FF0E061
:10045000E35AFE4F108220E0DFCF2CE82BBD28B7F7
:10046000206428BF983040F08F5F08958CE88BBDE2
:1004700088B7806488BF80E0089590E0880F991F56
:10048000880F991F20919F013091A00140919D01FB
:1004900050919E018217930708F06DC2FA01E80F90
:1004A000F91F608160935D01BC016F5F7F4F621730
:1004B000730708F069C2FA01E60FF71F60816093C5
:1004C0005E01BC016E5F7F4F6217730708F065C263
:1004D000FA01E60FF71F608160935F01BC016D5F59
:1004E0007F4F6217730708F061C2FA01E60FF71F2A
:1004F000608160936001BC016C5F7F4F621773077E
:1005000008F05DC2FA01E60FF71F60816093610198
:10051000BC016B5F7F4F6217730708F059C2FA0185
:10052000E60FF71F608160936201BC016A5F7F4F35
:100530006217730708F055C2FA01E60FF71F6081D2
:1005400060936301BC01695F7F4F6217730708F016
:1005500051C2FA01E60FF71F608160936401BC018C
:10056000685F7F4F6217730708F04DC2FA01E60F0C
:10057000F71F608160936501BC01675F7F4F621761
:10058000730708F049C2FA01E60FF71F6081609314
:100590006601BC01665F7F4F6217730708F045C2B2
:1005A000FA01E60FF71F608160936701BC01655F88
:1005B0007F4F6217730708F041C2FA01E60FF71F79
:1005C000608160936801BC01645F7F4F62177307AD
:1005D00008F03DC2FA01E60FF71F608160936901E0
:1005E000BC01635F7F4F6217730708F039C2FA01DD
:1005F000E60FF71F608160936A01BC01625F7F4F65
:100600006217730708F035C2FA01E60FF71F608121
:1006100060936B010F968217930708F431C2109212
:100620006C0140915D0183E64827842F8295807F8D
:100630004827242F30E0C901880F991F880F991F80
:10064000880F991F322F22278227932723E682279C
:1006500042954F70842730915E013827232F2295D1
:10066000207F3227632F70E0AB01440F551F440FEA
:10067000551F440F551F762F662746275727892F6A
:1006800099274827592732953F70432790915F015A
:100690009427892F8295807F9827692F70E09B018E
:1006A000220F331F220F331F220F331F762F66278F
:1006B00026273727452F55272427352792959F70C2
:1006C0002927509160015227852F8295807F5827D6
:1006D000652F70E0962F8827660F771F660F771FAC
:1006E000660F771F86279727232F33278227932785
:1006F00052955F708527309161013827232F22950D
:10070000207F3227632F70E0562F4427660F771F14
:10071000660F771F660F771F46275727892F992760
:100720004827592732953F704327909162019427BB
:10073000892F8295807F9827692F70E0362F222796
:10074000660F771F660F771F660F771F26273727DD
:10075000452F55272427352792959F70292750919B
:1007600063015227852F8295807F5827652F70E07F
:10077000962F8827660F771F660F771F660F771FE4
:1007800086279727232F33278227932752955F7039
:100790008527309164013827232F2295207F322727
:1007A000632F70E0562F4427660F771F660F771F61
:1007B000660F771F46275727892F992748275927DC
:1007C00032953F704327909165019427892F829538
:1007D000807F9827692F70E0362F2227660F771FBA
:1007E000660F771F660F771F26273727452F552758
:1007F0002427352792959F7029275091660152270B
:10080000852F8295807F5827652F70E0962F882747
:10081000660F771F660F771F660F771F862797274C
:10082000232F33278227932752955F708527309196
:1008300067013827232F2295207F3227632F70E00E
:10084000562F4427660F771F660F771F660F771F97
:1008500046275727892F99274827592732953F70D0
:100860004327909168019427892F8295807F98274C
:10087000692F70E0362F2227660F771F660F771FCC
:10088000660F771F26273727452F5527242735271B
:1008900092959F702927509169015227852F829543
:1008A000807F5827652F70E0962F8827660F771F67
:1008B000660F771F660F771F86279727232F33270B
:1008C0008227932752955F70852730916A013827D8
:1008D000232F2295207F3227632F70E0562F442745
:1008E000660F771F660F771F660F771F46275727FC
:1008F000892F99274827592732953F704327909190
:100900006B019427892F8295807F9827692F70E04B
:10091000362F2227660F771F660F771F660F771F08
:1009200026273727452F55272427352792959F704F
:10093000292740916C014227842F8295807F482788
:10094000642F70E0962F8827660F771F660F771F3A
:10095000660F771F86279727232F33278227932712
:1009600042954F70842780936D0190936E0162E1F0
:100970008DE591E01ECC10925D01BC016F5F7F4F51
:100980006217730708F497CD10925E01BC016E5F89
:100990007F4F6217730708F49BCD10925F01BC0173
:1009A0006D5F7F4F6217730708F49FCD109260014F
:1009B000BC016C5F7F4F6217730708F4A3CD1092E0
:1009C0006101BC016B5F7F4F6217730708F4A7CD0D
:1009D00010926201BC016A5F7F4F6217730708F4CF
:1009E000ABCD10926301BC01695F7F4F6217730743
:1009F00008F4AFCD10926401BC01685F7F4F6217AD
:100A0000730708F4B3CD10926501BC01675F7F4F97
:100A10006217730708F4B7CD10926601BC01665FD8
:100A20007F4F6217730708F4BBCD10926701BC01BA
:100A3000655F7F4F6217730708F4BFCD109268019E
:100A4000BC01645F7F4F6217730708F4C3CD109237
:100A50006901BC01635F7F4F6217730708F4C7CD5C
:100A600010926A01BC01625F7F4F6217730708F43E
:100A7000CBCD10926B010F968217930708F0CFCD64
:100A8000FA01E80FF91F808180936C01CACD909123
:100A90006301E091640140915D0123E64227242F28
:100AA0002295207F4227242F30E0722F6627220FC5
:100AB000331F220F331F220F331F6227732723E6B2
:100AC000622742954F70642730915E013627232FAD
:100AD0002295207F3227A32FB0E05A2F4427AA0F58
:100AE000BB1FAA0FBB1FAA0FBB1F4A275B27672F7D
:100AF00077274627572732953F704327F0915F01AC
:100B00002F2F2427722F7295707F7227A72FB0E0A6
:100B10003A2F2227AA0FBB1FAA0FBB1FAA0FBB1F6A
:100B20002A273B27452F55272427352772957F7085
:100B30002727509160015227452F4295407F542727
:100B4000A52FB0E07A2F6627AA0FBB1FAA0FBB1FE5
:100B5000AA0FBB1F6A277B27232F33276227732700
:100B600052955F706527309161013627232F2295BA
:100B7000207F3227A32FB0E05A2F4427AA0FBB1F94
:100B8000AA0FBB1FAA0FBB1F4A275B27672F772718
:100B90004627572732953F704327609162016427AB
:100BA000262F2295207F6227A62FB0E03A2F2227FA
:100BB000AA0FBB1FAA0FBB1FAA0FBB1F2A273B27C9
:100BC000452F55272427352762956F7026272093B8
:100BD000630130936401921739F081E080935D01E5
:100BE00061E08DE591E0E5CAE313F7CF90E0880F6F
:100BF000991F880F991F20919F013091A0018217A2
:100C0000930758F4A0919D01B0919E01A80FB91FC0
:100C1000FC9320919F013091A001AC014F5F5F4F89
:100C20004217530770F42091600160919D0170910B
:100C30009E01FB01E40FF51F208320919F0130915D
:100C4000A001AC014E5F5F4F4217530770F4209133
:100C5000610160919D0170919E01FB01E40FF51F00
:100C6000208320919F013091A00103968217930762
:100C700050F42091620140919D0150919E01FA0132
:100C8000E80FF91F20838AE080935D0161E08DE524
:100C900091E08FCA4F925F926F927F928F929F9254
:100CA000AF92BF92CF92DF92EF92FF920F931F937A
:100CB000CF93DF93449B2EC0C198C8E010E003E6B9
:100CC00009C08230B1F0D130B9F181E0D11180E0BA
:100CD000C81BF9F078DBD82F812F8770813089F716
:100CE00080915D01833909F441C0853991F1187013
:100CF000ECCF80915D01803309F44DC0823A09F454
:100D0000DEC290913B018917F1F1DD23F1F21870F9
:100D1000DCCFC19A449ADF91CF911F910F91FF9040
:100D2000EF90DF90CF90BF90AF909F908F907F908B
:100D30006F905F904F90089580915D01863211F021
:100D4000823519F662E089E391E033DA18701F5FAB
:100D5000BCCF80915E01803209F4FCC2803739F645
:100D600063E089E291E025DA1F5FAFCF80915E01F9
:100D7000803209F4EAC2803709F0B9CF63E08CE22F
:100D800091E017DAA2CF90915F0180913D01981315
:100D9000BCCF18E09ACF20915E0130E0220F331FC4
:100DA000220F331F40919F015091A0012417350756
:100DB00008F0C5C2E0919D01F0919E01E20FF31F82
:100DC000E081E0935D018E2F8027E82FE295E07FA0
:100DD000E8276E2F70E0962F8827660F771F660F23
:100DE000771F660F771F8627972763E68627E2958A
:100DF000EF708E27F82F892F9927B9016F5F7F4FEA
:100E00006417750708F097C2A0919D01B0919E01EB
:100E1000A60FB71FEC91E0935E01B9016E5F7F4FA3
:100E20006417750708F083C2A0919D01B0919E01DF
:100E3000A60FB71F7C9170935F01D9011396A41779
:100E4000B50708F070C2E0909D01F0909E01AE0DD4
:100E5000BF1D6C9160936001D9011496A417B5076A
:100E600008F05DC2E0909D01F0909E01AE0DBF1DA7
:100E7000DC90D0926101D9011596A417B50708F04E
:100E80004AC2E0909D01F0909E01AE0DBF1DCC9036
:100E9000C0926201D9011696A417B50708F037C2AF
:100EA000E0909D01F0909E01AE0DBF1DBC90B092F0
:100EB0006301D9011796A417B50708F024C2E09082
:100EC0009D01F0909E01AE0DBF1DAC90A0926401FB
:100ED000D9011896A417B50708F011C2E0909D013A
:100EE000F0909E01AE0DBF1D9C9090926501D901BE
:100EF0001996A417B50708F0FEC1E0909D01F09087
:100F00009E01AE0DBF1D8C9080926601D9011A968C
:100F1000A417B50708F0EBC1E0909D01F0909E0189
:100F2000AE0DBF1D7C9070926701D9011B96A4176E
:100F3000B50708F0D8C1E0909D01F0909E01AE0D7C
:100F4000BF1D6C9060926801D9011C96A417B5076B
:100F500008F0C5C1E0909D01F0909E01AE0DBF1D4F
:100F60005C9050926901D9011D96A417B50708F04D
:100F7000B2C1E0909D01F0909E01AE0DBF1D4C905E
:100F800040926A01D9011E96A417B50708F09FC1C7
:100F9000E0909D01F0909E01AE0DBF1DAC91A0931D
:100FA0006B01FA2E215F3F4F2417350708F08BC1E4
:100FB00040919D0150919E01240F351FD9012C9124
:100FC00020936C01B22FEF27FE2FF295F07FEF27D1
:100FD0002E2F30E0522F4427220F331F220F331FB2
:100FE000220F331F2427352782279327E295EF709E
:100FF0008E277827272F2295207F7227272F30E0F2
:10100000522F4427220F331F220F331F220F331F6B
:1010100024273527892F99272827392772957F700C
:1010200027276227862F8295807F6827862F90E06A
:10103000582F4427880F991F880F991F880F991FD1
:1010400084279527232F33278227932762956F7054
:101050008627D8262D2D2295207FD2262D2D30E0D3
:10106000522F4427220F331F220F331F220F331F0B
:1010700024273527892F992728273927D2945FE0FD
:10108000D5222D25C2268C2D8295807FC8268C2DB9
:1010900090E0582F4427880F991F880F991F880FB9
:1010A000991F84279527232F332782279327C294BC
:1010B000FFE0CF228C25B8262B2D2295207FB2264B
:1010C0002B2D30E0522F4427220F331F220F331FC6
:1010D000220F331F24273527892F992728273927BF
:1010E000B294EFE0BE222B25A2268A2D8295807F26
:1010F000A8268A2D90E0582F4427880F991F880F23
:10110000991F880F991F84279527232F332782271C
:101110009327A2945FE0A5228A259826292D22955F
:10112000207F9226292D30E0522F4427220F331F93
:10113000220F331F220F331F24273527892F99278A
:10114000282739279294FFE09F2229258226882D7F
:101150008295807F8826482D50E0742F6627CA012B
:10116000880F991F880F991F880F991F8627972727
:10117000232F33278227932782946FE086228825A6
:101180007826272D2295207F7226472D50E0742F38
:1011900066279A01220F331F220F331F220F331F9E
:1011A00026273727892F9927282739277294AFE0D8
:1011B0007A2227256226862D8295807F6826462DF5
:1011C00050E0942F8827440F551F440F551F440F9C
:1011D000551F84279527232F33278227932762942F
:1011E000EFE06E2286255826252D2295207F522657
:1011F000452D50E0342F2227440F551F440F551F13
:10120000440F551F24273527892F99272827392749
:1012100052945FE0552225254226842D8295807FB9
:101220004826442D50E0942F8827440F551F440F23
:10123000551F440F551F84279527232F33278227B7
:1012400093274294FFE04F228425AF2DA8272A2F11
:101250002295207FA2274A2F50E0342F2227440FC7
:10126000551F440F551F440F551F24273527892F1D
:10127000992728273927A295AF702A27B2278B2FC5
:101280008295807FB8274B2F50E0942F8827440FFA
:10129000551F440F551F440F551F84279527232F93
:1012A000332782279327B295BF708B2780936D01D8
:1012B00090936E0162E18DE591E07BD706CD809140
:1012C0005E01E5DB02CD10926C01B0E07CCE1092A5
:1012D0006B01F12C67CE10926A01412C53CE109213
:1012E0006901512C40CE10926801612C2DCE1092D4
:1012F0006701712C1ACE10926601812C07CE1092D4
:101300006501912CF4CD10926401A12CE1CD1092D5
:101310006301B12CCECD10926201C12CBBCD1092D5
:101320006101D12CA8CD1092600160E095CD1092A2
:101330005F0170E082CD10925E01E0E06ECD109210
:101340005D0181E590E0FEEF58CD65E084E391E03A
:1013500030D7BBCC65E08FE291E02BD7B6CCB99A01
:1013600020E030E0E6E0F0E0C90183709927892BA6
:1013700009F4C198C901BF0116D0892B09F4C19A9B
:1013800083E790E40197F1F700C000002F5F3F4F23
:101390002536310549F769EC70E080E690E05BD6D0
:1013A00079DC78DCFDCFAA1BBB1B51E107C0AA1F6B
:1013B000BB1FA617B70710F0A61BB70B881F991FF6
:1013C0005A95A9F780959095BC01CD010895F894A0
:0213D000FFCF4D
:1013D200000000000000000000000000E11080009A
:1013E20003FF00B4C209000000A5746578742F6879
:1013F200746D6CEFBBBF3C68746D6C3E3C626F6495
:1014020079207374796C653D226261636B67726FD8
:10141200756E642D636F6C6F723A626C61636B3BC5
:10142200636F6C6F723A77686974653B666F6E744E
:101432003A417269616C3B223E3C68313E53696DB0
:10144200706C65204E46433C2F68313E3C703E46F0
:10145200726F6D203C6120687265663D226874740B
:10146200703A2F2F796F6872626C6F672E626C6FA1
:101472006773706F742E6465223E796F6872626C56
:101482006F673C2F613E3C2F703E3C2F626F647948
:101492003E3C2F68746D6C3EFE00FE5104DA17A2CA
:1014A200EF2080008804E3EF004400500057000161
:1014B200020408102040800001000200040008001D
:0A14C2001000200040008000000030
:00000001FF
