:100000000EC015C014C013C012C011C010C00FC064
:100010000EC00DC00CC00BC00AC009C008C011241E
:100020001FBECFE5D2E0DEBFCDBF22D071C0E8CF8A
:1000300021E030E002C0220F331F6A95E2F7822BE5
:10004000932B089521E030E002C0220F331F6A9500
:10005000E2F72095309582239323089521E030E044
:1000600002C0220F331F6A95E2F782279327089573
:1000700087B3836087BB20E030E0E6E0F0E0C901B1
:1000800083709927892B09F4C198C901BF012CD02D
:10009000892B09F4C19A87E99AE30197F1F700C027
:1000A00000002F5F3F4F2536310549F71ABC8AB54E
:1000B00080648ABD8AB590E08F778ABD8AB590E06A
:1000C0008E7F8ABD8AB582608ABD83B7816083BF17
:1000D00083B790E08D7F83BF83B790E08B7F83BF32
:1000E00012BE8FEF89BDFFCFAA1BBB1B51E107C01A
:1000F000AA1FBB1FA617B70710F0A61BB70B881FB8
:10010000991F5A95A9F780959095BC01CD01089546
:04011000F894FFCF91
:00000001FF
