:100000000EC015C014C013C012C011C010C00FC064
:100010000EC00DC00CC00BC00AC009C008C011241E
:100020001FBECFE5D2E0DEBFCDBF2AD071C0E8CF82
:1000300021E030E002C0220F331F6A95E2F7822BE5
:10004000932B089521E030E002C0220F331F6A9500
:10005000E2F72095309582239323089521E030E044
:1000600002C0220F331F6A95E2F782279327089573
:1000700002C0959587956A95E2F781709927089552
:100080008DEA81BFBC9A87B5846087BD80B78068E0
:1000900080BF82E08DBD8CB580618CBD8CB590E059
:1000A0008F7D8CBD80B790E0877F80BF80B790E068
:1000B0008B7F80BF80B790E08D7F80BF80B78160ED
:1000C00080BF1E9A389A419A409A439A4798B99AA3
:1000D0008AB590E08F7D8ABD8AB580618ABD83B77D
:1000E00090E0877F83BF8AB582608ABD8AB590E041
:1000F0008E7F8ABD83B790E08B7F83BF83B790E00C
:100100008D7F83BF83B7816083BF8BE089BDFFCFC5
:04011000F894FFCF91
:00000001FF
