:100000000EC015C014C013C012C011C010C00FC064
:100010000EC00DC00CC00BC00AC009C008C011241E
:100020001FBECFE5D2E0DEBFCDBF28D077C0E8CF7E
:100030006150710921E030E002C0220F331F6A9540
:10004000E2F7822B932B08956150710921E030E093
:1000500002C0220F331F6A95E2F720953095822364
:10006000932308956150710921E030E002C0220F0E
:10007000331F6A95E2F782279327089587B3836039
:1000800087BB30E020E0E6E0F0E0C901837099270B
:10009000892B09F4C198C901BF012CD0892B09F41F
:1000A000C19A87E99AE30197F1F700C000002F5F3A
:1000B0003F4F2536310549F78AB580628ABD8AB53A
:1000C00090E08F7B8ABD4AB56FEF81E090E0062E0D
:1000D00002C0880F991F0A94E2F79C012095309581
:1000E00024232ABD2AB521602ABD23B7822B83BFD2
:1000F00069BDFFCFAA1BBB1B51E107C0AA1FBB1FD5
:10010000A617B70710F0A61BB70B881F991F5A95A3
:10011000A9F780959095BC01CD010895F894FFCF83
:00000001FF
